{
  "abi": [
    {
      "type": "constructor",
      "inputs": [
        {
          "name": "initialSupply",
          "type": "uint256",
          "internalType": "uint256"
        },
        {
          "name": "liquidityWallet",
          "type": "address",
          "internalType": "address"
        },
        {
          "name": "ronaldinhoWallet",
          "type": "address",
          "internalType": "address"
        },
        {
          "name": "marketingWallet",
          "type": "address",
          "internalType": "address"
        },
        {
          "name": "teamWallet",
          "type": "address",
          "internalType": "address"
        },
        {
          "name": "admin",
          "type": "address",
          "internalType": "address"
        },
        {
          "name": "blacklisterRole",
          "type": "address",
          "internalType": "address"
        }
      ],
      "stateMutability": "nonpayable"
    },
    {
      "type": "receive",
      "stateMutability": "payable"
    },
    {
      "type": "function",
      "name": "ADMIN_ROLE",
      "inputs": [],
      "outputs": [
        {
          "name": "",
          "type": "bytes32",
          "internalType": "bytes32"
        }
      ],
      "stateMutability": "view"
    },
    {
      "type": "function",
      "name": "BLACKLISTER_ROLE",
      "inputs": [],
      "outputs": [
        {
          "name": "",
          "type": "bytes32",
          "internalType": "bytes32"
        }
      ],
      "stateMutability": "view"
    },
    {
      "type": "function",
      "name": "DEFAULT_ADMIN_ROLE",
      "inputs": [],
      "outputs": [
        {
          "name": "",
          "type": "bytes32",
          "internalType": "bytes32"
        }
      ],
      "stateMutability": "view"
    },
    {
      "type": "function",
      "name": "allowance",
      "inputs": [
        {
          "name": "owner",
          "type": "address",
          "internalType": "address"
        },
        {
          "name": "spender",
          "type": "address",
          "internalType": "address"
        }
      ],
      "outputs": [
        {
          "name": "",
          "type": "uint256",
          "internalType": "uint256"
        }
      ],
      "stateMutability": "view"
    },
    {
      "type": "function",
      "name": "approve",
      "inputs": [
        {
          "name": "spender",
          "type": "address",
          "internalType": "address"
        },
        {
          "name": "value",
          "type": "uint256",
          "internalType": "uint256"
        }
      ],
      "outputs": [
        {
          "name": "",
          "type": "bool",
          "internalType": "bool"
        }
      ],
      "stateMutability": "nonpayable"
    },
    {
      "type": "function",
      "name": "balanceOf",
      "inputs": [
        {
          "name": "account",
          "type": "address",
          "internalType": "address"
        }
      ],
      "outputs": [
        {
          "name": "",
          "type": "uint256",
          "internalType": "uint256"
        }
      ],
      "stateMutability": "view"
    },
    {
      "type": "function",
      "name": "blacklisted",
      "inputs": [
        {
          "name": "",
          "type": "address",
          "internalType": "address"
        }
      ],
      "outputs": [
        {
          "name": "",
          "type": "bool",
          "internalType": "bool"
        }
      ],
      "stateMutability": "view"
    },
    {
      "type": "function",
      "name": "burn",
      "inputs": [
        {
          "name": "amount",
          "type": "uint256",
          "internalType": "uint256"
        }
      ],
      "outputs": [
        {
          "name": "",
          "type": "bool",
          "internalType": "bool"
        }
      ],
      "stateMutability": "nonpayable"
    },
    {
      "type": "function",
      "name": "claimTokens",
      "inputs": [
        {
          "name": "amount",
          "type": "uint256",
          "internalType": "uint256"
        },
        {
          "name": "proof",
          "type": "bytes32[]",
          "internalType": "bytes32[]"
        }
      ],
      "outputs": [],
      "stateMutability": "nonpayable"
    },
    {
      "type": "function",
      "name": "decimals",
      "inputs": [],
      "outputs": [
        {
          "name": "",
          "type": "uint8",
          "internalType": "uint8"
        }
      ],
      "stateMutability": "view"
    },
    {
      "type": "function",
      "name": "excludedFromVesting",
      "inputs": [
        {
          "name": "",
          "type": "address",
          "internalType": "address"
        }
      ],
      "outputs": [
        {
          "name": "",
          "type": "bool",
          "internalType": "bool"
        }
      ],
      "stateMutability": "view"
    },
    {
      "type": "function",
      "name": "getClaimStatus",
      "inputs": [
        {
          "name": "account",
          "type": "address",
          "internalType": "address"
        }
      ],
      "outputs": [
        {
          "name": "claimed",
          "type": "bool",
          "internalType": "bool"
        },
        {
          "name": "claimable",
          "type": "bool",
          "internalType": "bool"
        }
      ],
      "stateMutability": "view"
    },
    {
      "type": "function",
      "name": "getRoleAdmin",
      "inputs": [
        {
          "name": "role",
          "type": "bytes32",
          "internalType": "bytes32"
        }
      ],
      "outputs": [
        {
          "name": "",
          "type": "bytes32",
          "internalType": "bytes32"
        }
      ],
      "stateMutability": "view"
    },
    {
      "type": "function",
      "name": "getTransferableAmount",
      "inputs": [
        {
          "name": "account",
          "type": "address",
          "internalType": "address"
        }
      ],
      "outputs": [
        {
          "name": "",
          "type": "uint256",
          "internalType": "uint256"
        }
      ],
      "stateMutability": "view"
    },
    {
      "type": "function",
      "name": "getVestingInfo",
      "inputs": [
        {
          "name": "account",
          "type": "address",
          "internalType": "address"
        }
      ],
      "outputs": [
        {
          "name": "totalAmount",
          "type": "uint256",
          "internalType": "uint256"
        },
        {
          "name": "tgeAmount",
          "type": "uint256",
          "internalType": "uint256"
        },
        {
          "name": "vestedAmount",
          "type": "uint256",
          "internalType": "uint256"
        },
        {
          "name": "vestingDuration",
          "type": "uint256",
          "internalType": "uint256"
        },
        {
          "name": "vestingStartTime",
          "type": "uint256",
          "internalType": "uint256"
        },
        {
          "name": "cliffDuration",
          "type": "uint256",
          "internalType": "uint256"
        },
        {
          "name": "transferableAmount",
          "type": "uint256",
          "internalType": "uint256"
        },
        {
          "name": "transferredAmount",
          "type": "uint256",
          "internalType": "uint256"
        }
      ],
      "stateMutability": "view"
    },
    {
      "type": "function",
      "name": "grantRole",
      "inputs": [
        {
          "name": "role",
          "type": "bytes32",
          "internalType": "bytes32"
        },
        {
          "name": "account",
          "type": "address",
          "internalType": "address"
        }
      ],
      "outputs": [],
      "stateMutability": "nonpayable"
    },
    {
      "type": "function",
      "name": "hasClaimed",
      "inputs": [
        {
          "name": "",
          "type": "address",
          "internalType": "address"
        }
      ],
      "outputs": [
        {
          "name": "",
          "type": "bool",
          "internalType": "bool"
        }
      ],
      "stateMutability": "view"
    },
    {
      "type": "function",
      "name": "hasRole",
      "inputs": [
        {
          "name": "role",
          "type": "bytes32",
          "internalType": "bytes32"
        },
        {
          "name": "account",
          "type": "address",
          "internalType": "address"
        }
      ],
      "outputs": [
        {
          "name": "",
          "type": "bool",
          "internalType": "bool"
        }
      ],
      "stateMutability": "view"
    },
    {
      "type": "function",
      "name": "isBlacklisted",
      "inputs": [
        {
          "name": "account",
          "type": "address",
          "internalType": "address"
        }
      ],
      "outputs": [
        {
          "name": "",
          "type": "bool",
          "internalType": "bool"
        }
      ],
      "stateMutability": "view"
    },
    {
      "type": "function",
      "name": "isExcludedFromVesting",
      "inputs": [
        {
          "name": "account",
          "type": "address",
          "internalType": "address"
        }
      ],
      "outputs": [
        {
          "name": "",
          "type": "bool",
          "internalType": "bool"
        }
      ],
      "stateMutability": "view"
    },
    {
      "type": "function",
      "name": "merkleRoot",
      "inputs": [],
      "outputs": [
        {
          "name": "",
          "type": "bytes32",
          "internalType": "bytes32"
        }
      ],
      "stateMutability": "view"
    },
    {
      "type": "function",
      "name": "name",
      "inputs": [],
      "outputs": [
        {
          "name": "",
          "type": "string",
          "internalType": "string"
        }
      ],
      "stateMutability": "view"
    },
    {
      "type": "function",
      "name": "renounceRole",
      "inputs": [
        {
          "name": "role",
          "type": "bytes32",
          "internalType": "bytes32"
        },
        {
          "name": "callerConfirmation",
          "type": "address",
          "internalType": "address"
        }
      ],
      "outputs": [],
      "stateMutability": "nonpayable"
    },
    {
      "type": "function",
      "name": "revokeRole",
      "inputs": [
        {
          "name": "role",
          "type": "bytes32",
          "internalType": "bytes32"
        },
        {
          "name": "account",
          "type": "address",
          "internalType": "address"
        }
      ],
      "outputs": [],
      "stateMutability": "nonpayable"
    },
    {
      "type": "function",
      "name": "setBlacklisted",
      "inputs": [
        {
          "name": "account",
          "type": "address",
          "internalType": "address"
        },
        {
          "name": "_isBlacklisted",
          "type": "bool",
          "internalType": "bool"
        }
      ],
      "outputs": [],
      "stateMutability": "nonpayable"
    },
    {
      "type": "function",
      "name": "setExcludedFromVesting",
      "inputs": [
        {
          "name": "account",
          "type": "address",
          "internalType": "address"
        },
        {
          "name": "excluded",
          "type": "bool",
          "internalType": "bool"
        }
      ],
      "outputs": [],
      "stateMutability": "nonpayable"
    },
    {
      "type": "function",
      "name": "setMerkleRoot",
      "inputs": [
        {
          "name": "_merkleRoot",
          "type": "bytes32",
          "internalType": "bytes32"
        }
      ],
      "outputs": [],
      "stateMutability": "nonpayable"
    },
    {
      "type": "function",
      "name": "setTokenURI",
      "inputs": [
        {
          "name": "_tokenURI",
          "type": "string",
          "internalType": "string"
        }
      ],
      "outputs": [],
      "stateMutability": "nonpayable"
    },
    {
      "type": "function",
      "name": "supportsInterface",
      "inputs": [
        {
          "name": "interfaceId",
          "type": "bytes4",
          "internalType": "bytes4"
        }
      ],
      "outputs": [
        {
          "name": "",
          "type": "bool",
          "internalType": "bool"
        }
      ],
      "stateMutability": "view"
    },
    {
      "type": "function",
      "name": "symbol",
      "inputs": [],
      "outputs": [
        {
          "name": "",
          "type": "string",
          "internalType": "string"
        }
      ],
      "stateMutability": "view"
    },
    {
      "type": "function",
      "name": "tokenURI",
      "inputs": [],
      "outputs": [
        {
          "name": "",
          "type": "string",
          "internalType": "string"
        }
      ],
      "stateMutability": "view"
    },
    {
      "type": "function",
      "name": "totalSupply",
      "inputs": [],
      "outputs": [
        {
          "name": "",
          "type": "uint256",
          "internalType": "uint256"
        }
      ],
      "stateMutability": "view"
    },
    {
      "type": "function",
      "name": "transfer",
      "inputs": [
        {
          "name": "to",
          "type": "address",
          "internalType": "address"
        },
        {
          "name": "amount",
          "type": "uint256",
          "internalType": "uint256"
        }
      ],
      "outputs": [
        {
          "name": "",
          "type": "bool",
          "internalType": "bool"
        }
      ],
      "stateMutability": "nonpayable"
    },
    {
      "type": "function",
      "name": "transferFrom",
      "inputs": [
        {
          "name": "from",
          "type": "address",
          "internalType": "address"
        },
        {
          "name": "to",
          "type": "address",
          "internalType": "address"
        },
        {
          "name": "amount",
          "type": "uint256",
          "internalType": "uint256"
        }
      ],
      "outputs": [
        {
          "name": "",
          "type": "bool",
          "internalType": "bool"
        }
      ],
      "stateMutability": "nonpayable"
    },
    {
      "type": "function",
      "name": "transferredTokens",
      "inputs": [
        {
          "name": "",
          "type": "address",
          "internalType": "address"
        }
      ],
      "outputs": [
        {
          "name": "",
          "type": "uint256",
          "internalType": "uint256"
        }
      ],
      "stateMutability": "view"
    },
    {
      "type": "function",
      "name": "vestingSchedules",
      "inputs": [
        {
          "name": "",
          "type": "address",
          "internalType": "address"
        }
      ],
      "outputs": [
        {
          "name": "totalAmount",
          "type": "uint256",
          "internalType": "uint256"
        },
        {
          "name": "tgeAmount",
          "type": "uint256",
          "internalType": "uint256"
        },
        {
          "name": "vestedAmount",
          "type": "uint256",
          "internalType": "uint256"
        },
        {
          "name": "vestingDuration",
          "type": "uint256",
          "internalType": "uint256"
        },
        {
          "name": "vestingStartTime",
          "type": "uint256",
          "internalType": "uint256"
        },
        {
          "name": "cliffDuration",
          "type": "uint256",
          "internalType": "uint256"
        },
        {
          "name": "initialized",
          "type": "bool",
          "internalType": "bool"
        }
      ],
      "stateMutability": "view"
    },
    {
      "type": "event",
      "name": "Approval",
      "inputs": [
        {
          "name": "owner",
          "type": "address",
          "indexed": true,
          "internalType": "address"
        },
        {
          "name": "spender",
          "type": "address",
          "indexed": true,
          "internalType": "address"
        },
        {
          "name": "value",
          "type": "uint256",
          "indexed": false,
          "internalType": "uint256"
        }
      ],
      "anonymous": false
    },
    {
      "type": "event",
      "name": "Blacklisted",
      "inputs": [
        {
          "name": "account",
          "type": "address",
          "indexed": true,
          "internalType": "address"
        },
        {
          "name": "blacklisted",
          "type": "bool",
          "indexed": false,
          "internalType": "bool"
        }
      ],
      "anonymous": false
    },
    {
      "type": "event",
      "name": "ExcludedFromVesting",
      "inputs": [
        {
          "name": "account",
          "type": "address",
          "indexed": true,
          "internalType": "address"
        },
        {
          "name": "excluded",
          "type": "bool",
          "indexed": false,
          "internalType": "bool"
        }
      ],
      "anonymous": false
    },
    {
      "type": "event",
      "name": "MerkleRootSet",
      "inputs": [
        {
          "name": "merkleRoot",
          "type": "bytes32",
          "indexed": true,
          "internalType": "bytes32"
        }
      ],
      "anonymous": false
    },
    {
      "type": "event",
      "name": "RoleAdminChanged",
      "inputs": [
        {
          "name": "role",
          "type": "bytes32",
          "indexed": true,
          "internalType": "bytes32"
        },
        {
          "name": "previousAdminRole",
          "type": "bytes32",
          "indexed": true,
          "internalType": "bytes32"
        },
        {
          "name": "newAdminRole",
          "type": "bytes32",
          "indexed": true,
          "internalType": "bytes32"
        }
      ],
      "anonymous": false
    },
    {
      "type": "event",
      "name": "RoleGranted",
      "inputs": [
        {
          "name": "role",
          "type": "bytes32",
          "indexed": true,
          "internalType": "bytes32"
        },
        {
          "name": "account",
          "type": "address",
          "indexed": true,
          "internalType": "address"
        },
        {
          "name": "sender",
          "type": "address",
          "indexed": true,
          "internalType": "address"
        }
      ],
      "anonymous": false
    },
    {
      "type": "event",
      "name": "RoleRevoked",
      "inputs": [
        {
          "name": "role",
          "type": "bytes32",
          "indexed": true,
          "internalType": "bytes32"
        },
        {
          "name": "account",
          "type": "address",
          "indexed": true,
          "internalType": "address"
        },
        {
          "name": "sender",
          "type": "address",
          "indexed": true,
          "internalType": "address"
        }
      ],
      "anonymous": false
    },
    {
      "type": "event",
      "name": "TokensBurned",
      "inputs": [
        {
          "name": "burner",
          "type": "address",
          "indexed": true,
          "internalType": "address"
        },
        {
          "name": "amount",
          "type": "uint256",
          "indexed": false,
          "internalType": "uint256"
        }
      ],
      "anonymous": false
    },
    {
      "type": "event",
      "name": "TokensClaimed",
      "inputs": [
        {
          "name": "account",
          "type": "address",
          "indexed": true,
          "internalType": "address"
        },
        {
          "name": "amount",
          "type": "uint256",
          "indexed": false,
          "internalType": "uint256"
        }
      ],
      "anonymous": false
    },
    {
      "type": "event",
      "name": "Transfer",
      "inputs": [
        {
          "name": "from",
          "type": "address",
          "indexed": true,
          "internalType": "address"
        },
        {
          "name": "to",
          "type": "address",
          "indexed": true,
          "internalType": "address"
        },
        {
          "name": "value",
          "type": "uint256",
          "indexed": false,
          "internalType": "uint256"
        }
      ],
      "anonymous": false
    },
    {
      "type": "event",
      "name": "VestingScheduleCreated",
      "inputs": [
        {
          "name": "beneficiary",
          "type": "address",
          "indexed": true,
          "internalType": "address"
        },
        {
          "name": "totalAmount",
          "type": "uint256",
          "indexed": false,
          "internalType": "uint256"
        },
        {
          "name": "tgeAmount",
          "type": "uint256",
          "indexed": false,
          "internalType": "uint256"
        },
        {
          "name": "vestingDuration",
          "type": "uint256",
          "indexed": false,
          "internalType": "uint256"
        },
        {
          "name": "cliffDuration",
          "type": "uint256",
          "indexed": false,
          "internalType": "uint256"
        }
      ],
      "anonymous": false
    },
    {
      "type": "error",
      "name": "AccessControlBadConfirmation",
      "inputs": []
    },
    {
      "type": "error",
      "name": "AccessControlUnauthorizedAccount",
      "inputs": [
        {
          "name": "account",
          "type": "address",
          "internalType": "address"
        },
        {
          "name": "neededRole",
          "type": "bytes32",
          "internalType": "bytes32"
        }
      ]
    },
    {
      "type": "error",
      "name": "ERC20InsufficientAllowance",
      "inputs": [
        {
          "name": "spender",
          "type": "address",
          "internalType": "address"
        },
        {
          "name": "allowance",
          "type": "uint256",
          "internalType": "uint256"
        },
        {
          "name": "needed",
          "type": "uint256",
          "internalType": "uint256"
        }
      ]
    },
    {
      "type": "error",
      "name": "ERC20InsufficientBalance",
      "inputs": [
        {
          "name": "sender",
          "type": "address",
          "internalType": "address"
        },
        {
          "name": "balance",
          "type": "uint256",
          "internalType": "uint256"
        },
        {
          "name": "needed",
          "type": "uint256",
          "internalType": "uint256"
        }
      ]
    },
    {
      "type": "error",
      "name": "ERC20InvalidApprover",
      "inputs": [
        {
          "name": "approver",
          "type": "address",
          "internalType": "address"
        }
      ]
    },
    {
      "type": "error",
      "name": "ERC20InvalidReceiver",
      "inputs": [
        {
          "name": "receiver",
          "type": "address",
          "internalType": "address"
        }
      ]
    },
    {
      "type": "error",
      "name": "ERC20InvalidSender",
      "inputs": [
        {
          "name": "sender",
          "type": "address",
          "internalType": "address"
        }
      ]
    },
    {
      "type": "error",
      "name": "ERC20InvalidSpender",
      "inputs": [
        {
          "name": "spender",
          "type": "address",
          "internalType": "address"
        }
      ]
    },
    {
      "type": "error",
      "name": "ReentrancyGuardReentrantCall",
      "inputs": []
    }
  ],
  "bytecode": {
    "object": "0x608060405234801562000010575f80fd5b5060405162002b4a38038062002b4a833981016040819052620000339162000864565b6040518060400160405280600681526020016505374617231360d41b8152506040518060400160405280600681526020016505354415231360d41b815250816003908162000082919062000982565b50600462000091828262000982565b505060016006555086620000fa5760405162461bcd60e51b815260206004820152602560248201527f496e697469616c20737570706c79206d75737420626520677265617465722074604482015264068616e20360dc1b60648201526084015b60405180910390fd5b6001600160a01b038616620001525760405162461bcd60e51b815260206004820152601760248201527f5a65726f20616464726573733a206c69717569646974790000000000000000006044820152606401620000f1565b6001600160a01b038516620001aa5760405162461bcd60e51b815260206004820152601860248201527f5a65726f20616464726573733a20726f6e616c64696e686f00000000000000006044820152606401620000f1565b6001600160a01b038416620002025760405162461bcd60e51b815260206004820152601760248201527f5a65726f20616464726573733a206d61726b6574696e670000000000000000006044820152606401620000f1565b6001600160a01b0383166200024f5760405162461bcd60e51b81526020600482015260126024820152715a65726f20616464726573733a207465616d60701b6044820152606401620000f1565b6200025b5f3362000329565b50620002685f8362000329565b50620002835f8051602062002b2a8339815191528362000329565b506200029e5f8051602062002b2a8339815191523362000329565b50620002cb7f98db8a220cd0f09badce9f22d0ba7e93edb3d404448cc3560d391ab096ad16e98262000329565b50620002d83088620003d9565b6200030d335f908152600960205260408082208054600160ff1991821681179092553084529190922080549091169091179055565b6200031c878787878762000415565b5050505050505062000ac4565b5f8281526005602090815260408083206001600160a01b038516845290915281205460ff16620003d0575f8381526005602090815260408083206001600160a01b03861684529091529020805460ff19166001179055620003873390565b6001600160a01b0316826001600160a01b0316847f2f8788117e7eff1d82e926ec794901d17c78024a50270940304540a733656f0d60405160405180910390a4506001620003d3565b505f5b92915050565b6001600160a01b038216620004045760405163ec442f0560e01b81525f6004820152602401620000f1565b620004115f83836200051a565b5050565b5f60646200042560108862000a5e565b62000431919062000a78565b90506200044030868362000649565b620004548582601e63036f58805f620006b1565b60646200046360148862000a5e565b6200046f919062000a78565b90506200047e30858362000649565b6200049484825f6305508c00629a3f80620006b1565b6064620004a3600c8862000a5e565b620004af919062000a78565b9050620004be30848362000649565b620004d28382600e63036f58805f620006b1565b6064620004e1600f8862000a5e565b620004ed919062000a78565b9050620004fc30838362000649565b6200051282825f6305508c00629a3f80620006b1565b505050505050565b6001600160a01b03831662000548578060025f8282546200053c919062000a98565b90915550620005ba9050565b6001600160a01b0383165f90815260208190526040902054818110156200059c5760405163391434e360e21b81526001600160a01b03851660048201526024810182905260448101839052606401620000f1565b6001600160a01b0384165f9081526020819052604090209082900390555b6001600160a01b038216620005d857600280548290039055620005f6565b6001600160a01b0382165f9081526020819052604090208054820190555b816001600160a01b0316836001600160a01b03167fddf252ad1be2c89b69c2b068fc378daa952ba7f163c4a11628f55a4df523b3ef836040516200063c91815260200190565b60405180910390a3505050565b6001600160a01b0383166200067457604051634b637e8f60e11b81525f6004820152602401620000f1565b6001600160a01b0382166200069f5760405163ec442f0560e01b81525f6004820152602401620000f1565b620006ac8383836200051a565b505050565b60648311156200070e5760405162461bcd60e51b815260206004820152602160248201527f5447452070657263656e746167652063616e6e6f7420657863656564203130306044820152602560f81b6064820152608401620000f1565b6001600160a01b0385165f9081526007602052604090206006015460ff16156200077b5760405162461bcd60e51b815260206004820152601f60248201527f56657374696e67207363686564756c6520616c726561647920657869737473006044820152606401620000f1565b5f60646200078a858762000a5e565b62000796919062000a78565b90505f620007a5828762000aae565b6001600160a01b0388165f818152600760209081526040918290208a8155600180820188905560028201869055600382018a90554260048301556005820189905560068201805460ff1916909117905582518b815291820187905291810188905260608101879052929350917f47d46f58c7d60d60571092cff5715b8c8c5bc1347db2bb9890e639bf3680ba7b9060800160405180910390a25050505050505050565b80516001600160a01b03811681146200085f575f80fd5b919050565b5f805f805f805f60e0888a0312156200087b575f80fd5b875196506200088d6020890162000848565b95506200089d6040890162000848565b9450620008ad6060890162000848565b9350620008bd6080890162000848565b9250620008cd60a0890162000848565b9150620008dd60c0890162000848565b905092959891949750929550565b634e487b7160e01b5f52604160045260245ffd5b600181811c908216806200091457607f821691505b6020821081036200093357634e487b7160e01b5f52602260045260245ffd5b50919050565b601f821115620006ac575f81815260208120601f850160051c81016020861015620009615750805b601f850160051c820191505b8181101562000512578281556001016200096d565b81516001600160401b038111156200099e576200099e620008eb565b620009b681620009af8454620008ff565b8462000939565b602080601f831160018114620009ec575f8415620009d45750858301515b5f19600386901b1c1916600185901b17855562000512565b5f85815260208120601f198616915b8281101562000a1c57888601518255948401946001909101908401620009fb565b508582101562000a3a57878501515f19600388901b60f8161c191681555b5050505050600190811b01905550565b634e487b7160e01b5f52601160045260245ffd5b8082028115828204841417620003d357620003d362000a4a565b5f8262000a9357634e487b7160e01b5f52601260045260245ffd5b500490565b80820180821115620003d357620003d362000a4a565b81810381811115620003d357620003d362000a4a565b6120588062000ad25f395ff3fe608060405260043610610209575f3560e01c806375b238fc11610113578063d01dd6d21161009d578063e0df5b6f1161006d578063e0df5b6f14610686578063f515e6f2146106a5578063fb897ce4146106d8578063fdb20ccb14610732578063fe575a87146107c2575f80fd5b8063d01dd6d2146105d6578063d547741f146105f5578063dbac26e914610614578063dd62ed3e14610642575f80fd5b806395d89b41116100e357806395d89b411461053b5780639a114cb21461054f578063a217fddf1461056e578063a9059cbb14610581578063c9760f71146105a0575f80fd5b806375b238fc146104ab5780637cb64759146104de57806391d14854146104fd578063934cefef1461051c575f80fd5b8063313ce5671161019457806342966c681161016457806342966c68146103d15780634abc4a3c146103f057806370a082311461041e57806373b2e80e14610452578063751c7ff114610480575f80fd5b8063313ce5671461034c57806336568abe146103675780633c130d90146103865780633da2903c1461039a575f80fd5b806318160ddd116101da57806318160ddd146102b557806323b872dd146102c9578063248a9ca3146102e85780632eb4a7ab146103165780632f2ff15d1461032b575f80fd5b8062b61dd91461021457806301ffc9a71461024657806306fdde0314610275578063095ea7b314610296575f80fd5b3661021057005b5f80fd5b34801561021f575f80fd5b5061023361022e366004611b80565b6107f9565b6040519081526020015b60405180910390f35b348015610251575f80fd5b50610265610260366004611b99565b6108ae565b604051901515815260200161023d565b348015610280575f80fd5b506102896108e2565b60405161023d9190611bc0565b3480156102a1575f80fd5b506102656102b0366004611c0b565b610972565b3480156102c0575f80fd5b50600254610233565b3480156102d4575f80fd5b506102656102e3366004611c33565b610989565b3480156102f3575f80fd5b50610233610302366004611c6c565b5f9081526005602052604090206001015490565b348015610321575f80fd5b50610233600c5481565b348015610336575f80fd5b5061034a610345366004611c83565b610a9a565b005b348015610357575f80fd5b506040516012815260200161023d565b348015610372575f80fd5b5061034a610381366004611c83565b610ac4565b348015610391575f80fd5b50610289610afc565b3480156103a5575f80fd5b506102656103b4366004611b80565b6001600160a01b03165f9081526009602052604090205460ff1690565b3480156103dc575f80fd5b506102656103eb366004611c6c565b610b88565b3480156103fb575f80fd5b5061026561040a366004611b80565b60096020525f908152604090205460ff1681565b348015610429575f80fd5b50610233610438366004611b80565b6001600160a01b03165f9081526020819052604090205490565b34801561045d575f80fd5b5061026561046c366004611b80565b600d6020525f908152604090205460ff1681565b34801561048b575f80fd5b5061023361049a366004611b80565b60086020525f908152604090205481565b3480156104b6575f80fd5b506102337fa49807205ce4d355092ef5a8a18f56e8913cf4a201fbe287825b095693c2177581565b3480156104e9575f80fd5b5061034a6104f8366004611c6c565b610d70565b348015610508575f80fd5b50610265610517366004611c83565b610e10565b348015610527575f80fd5b5061034a610536366004611cad565b610e3a565b348015610546575f80fd5b50610289610f15565b34801561055a575f80fd5b5061034a610569366004611ce6565b610f24565b348015610579575f80fd5b506102335f81565b34801561058c575f80fd5b5061026561059b366004611c0b565b61113c565b3480156105ab575f80fd5b506105bf6105ba366004611b80565b61122d565b60408051921515835290151560208301520161023d565b3480156105e1575f80fd5b5061034a6105f0366004611cad565b611262565b348015610600575f80fd5b5061034a61060f366004611c83565b61138c565b34801561061f575f80fd5b5061026561062e366004611b80565b600a6020525f908152604090205460ff1681565b34801561064d575f80fd5b5061023361065c366004611d5e565b6001600160a01b039182165f90815260016020908152604080832093909416825291909152205490565b348015610691575f80fd5b5061034a6106a0366004611d9a565b6113b0565b3480156106b0575f80fd5b506102337f98db8a220cd0f09badce9f22d0ba7e93edb3d404448cc3560d391ab096ad16e981565b3480156106e3575f80fd5b506106f76106f2366004611b80565b61142e565b604080519889526020890197909752958701949094526060860192909252608085015260a084015260c083015260e08201526101000161023d565b34801561073d575f80fd5b5061078b61074c366004611b80565b60076020525f90815260409020805460018201546002830154600384015460048501546005860154600690960154949593949293919290919060ff1687565b604080519788526020880196909652948601939093526060850191909152608084015260a0830152151560c082015260e00161023d565b3480156107cd575f80fd5b506102656107dc366004611b80565b6001600160a01b03165f908152600a602052604090205460ff1690565b6001600160a01b0381165f9081526009602052604081205460ff1615610838576001600160a01b0382165f908152602081905260409020545b92915050565b6001600160a01b0382165f908152600760205260409020600681015460ff1661087b576001600160a01b0383165f908152602081905260409020545b9392505050565b8060050154816004015461088f9190611e59565b4210156108a4576108748160010154846114b2565b61087483826114f9565b5f6001600160e01b03198216637965db0b60e01b148061083257506301ffc9a760e01b6001600160e01b0319831614610832565b6060600380546108f190611e6c565b80601f016020809104026020016040519081016040528092919081815260200182805461091d90611e6c565b80156109685780601f1061093f57610100808354040283529160200191610968565b820191905f5260205f20905b81548152906001019060200180831161094b57829003601f168201915b5050505050905090565b5f3361097f818585611593565b5060019392505050565b6001600160a01b0383165f908152600a602052604081205460ff16156109f65760405162461bcd60e51b815260206004820152601d60248201527f5374617231303a2073656e64657220697320626c61636b6c697374656400000060448201526064015b60405180910390fd5b6001600160a01b0383165f908152600a602052604090205460ff1615610a5e5760405162461bcd60e51b815260206004820181905260248201527f5374617231303a20726563697069656e7420697320626c61636b6c697374656460448201526064016109ed565b6001600160a01b0384165f9081526009602052604090205460ff16610a8757610a8784836115a0565b610a9284848461163e565b949350505050565b5f82815260056020526040902060010154610ab481611661565b610abe838361166e565b50505050565b6001600160a01b0381163314610aed5760405163334bd91960e11b815260040160405180910390fd5b610af782826116ff565b505050565b600b8054610b0990611e6c565b80601f0160208091040260200160405190810160405280929190818152602001828054610b3590611e6c565b8015610b805780601f10610b5757610100808354040283529160200191610b80565b820191905f5260205f20905b815481529060010190602001808311610b6357829003601f168201915b505050505081565b5f610b9161176a565b3382610bed5760405162461bcd60e51b815260206004820152602560248201527f4275726e20616d6f756e74206d7573742062652067726561746572207468616e604482015264207a65726f60d81b60648201526084016109ed565b82610c0c826001600160a01b03165f9081526020819052604090205490565b1015610c5a5760405162461bcd60e51b815260206004820152601b60248201527f4275726e20616d6f756e7420657863656564732062616c616e6365000000000060448201526064016109ed565b6001600160a01b0381165f9081526009602052604090205460ff16610d0f575f610c83826107f9565b905080841115610ce15760405162461bcd60e51b8152602060048201526024808201527f4275726e20616d6f756e74206578636565647320617661696c61626c6520746f6044820152636b656e7360e01b60648201526084016109ed565b6001600160a01b0382165f9081526008602052604081208054869290610d08908490611e59565b9091555050505b610d198184611794565b806001600160a01b03167ffd38818f5291bf0bb3a2a48aadc06ba8757865d1dabd804585338aab3009dcb684604051610d5491815260200190565b60405180910390a26001915050610d6b6001600655565b919050565b7fa49807205ce4d355092ef5a8a18f56e8913cf4a201fbe287825b095693c21775610d9a81611661565b81610ddd5760405162461bcd60e51b8152602060048201526013602482015272125b9d985b1a59081b595c9adb19481c9bdbdd606a1b60448201526064016109ed565b600c82905560405182907f42cbc405e4dbf1b691e85b9a34b08ecfcf7a9ad9078bf4d645ccfa1fac11c10b905f90a25050565b5f9182526005602090815260408084206001600160a01b0393909316845291905290205460ff1690565b7f98db8a220cd0f09badce9f22d0ba7e93edb3d404448cc3560d391ab096ad16e9610e6481611661565b6001600160a01b038316610eb55760405162461bcd60e51b815260206004820152601860248201527716995c9bc81859191c995cdcc81b9bdd08185b1b1bddd95960421b60448201526064016109ed565b6001600160a01b0383165f81815260096020908152604091829020805460ff191686151590811790915591519182527f1fd0319c278b93a93fbcf0952ce629a30a72c979784ead9e8979a8c41124215291015b60405180910390a2505050565b6060600480546108f190611e6c565b610f2c61176a565b600c54610f715760405162461bcd60e51b815260206004820152601360248201527213595c9adb19481c9bdbdd081b9bdd081cd95d606a1b60448201526064016109ed565b335f908152600d602052604090205460ff1615610fc25760405162461bcd60e51b815260206004820152600f60248201526e105b1c9958591e4818db185a5b5959608a1b60448201526064016109ed565b5f83116110115760405162461bcd60e51b815260206004820152601d60248201527f416d6f756e74206d7573742062652067726561746572207468616e203000000060448201526064016109ed565b604080513360208201529081018490525f9060600160408051601f198184030181528282528051602091820120908301520160405160208183030381529060405280519060200120905061109b8383808060200260200160405190810160405280939291908181526020018383602002808284375f9201919091525050600c5491508490506117cc565b6110d75760405162461bcd60e51b815260206004820152600d60248201526c24b73b30b634b210383937b7b360991b60448201526064016109ed565b335f818152600d60205260409020805460ff191660011790556110fc903090866117e1565b60405184815233907f896e034966eaaf1adc54acc0f257056febbd300c9e47182cf761982cf1f5e4309060200160405180910390a250610af76001600655565b335f908152600a602052604081205460ff161561119b5760405162461bcd60e51b815260206004820152601d60248201527f5374617231303a2073656e64657220697320626c61636b6c697374656400000060448201526064016109ed565b6001600160a01b0383165f908152600a602052604090205460ff16156112035760405162461bcd60e51b815260206004820181905260248201527f5374617231303a20726563697069656e7420697320626c61636b6c697374656460448201526064016109ed565b335f9081526009602052604090205460ff166112235761122333836115a0565b610874838361183e565b6001600160a01b0381165f908152600d6020526040812054600c5460ff90911691901580159061125b575081155b9050915091565b7f98db8a220cd0f09badce9f22d0ba7e93edb3d404448cc3560d391ab096ad16e961128c81611661565b6001600160a01b0383166112dd5760405162461bcd60e51b815260206004820152601860248201527716995c9bc81859191c995cdcc81b9bdd08185b1b1bddd95960421b60448201526064016109ed565b336001600160a01b038416036113355760405162461bcd60e51b815260206004820152601960248201527f43616e6e6f7420626c61636b6c69737420796f757273656c660000000000000060448201526064016109ed565b6001600160a01b0383165f818152600a6020908152604091829020805460ff191686151590811790915591519182527fcf3473b85df1594d47b6958f29a32bea0abff9dd68296f7bf33443646793cfd89101610f08565b5f828152600560205260409020600101546113a681611661565b610abe83836116ff565b7fa49807205ce4d355092ef5a8a18f56e8913cf4a201fbe287825b095693c217756113da81611661565b5f8251116114225760405162461bcd60e51b8152602060048201526015602482015274115b5c1d1e48155492481b9bdd08185b1b1bddd959605a1b60448201526064016109ed565b600b610af78382611ef1565b6001600160a01b0381165f90815260076020526040812081908190819081908190819081908161145d8b6107f9565b6001600160a01b038c165f9081526008602052604090205483546001850154600286015460038701546004880154600590980154939f50919d509b509950939750929550935090915050919395975091939597565b6001600160a01b0381165f9081526008602052604081205483116114d757505f610832565b6001600160a01b0382165f908152600860205260409020546108749084611fad565b600181015460038201545f91901580159061151757505f8360020154115b15611589575f836005015484600401546115319190611e59565b61153b9042611fad565b9050836003015481106115515783549150611587565b5f84600301548286600201546115679190611fc0565b6115719190611fd7565b90508085600101546115839190611e59565b9250505b505b610a9281856114b2565b610af7838383600161184b565b5f6115aa836107f9565b90508082111561160d5760405162461bcd60e51b815260206004820152602860248201527f5472616e7366657220616d6f756e74206578636565647320617661696c61626c6044820152676520746f6b656e7360c01b60648201526084016109ed565b6001600160a01b0383165f9081526008602052604081208054849290611634908490611e59565b9091555050505050565b5f3361164b85828561191d565b6116568585856117e1565b506001949350505050565b61166b8133611993565b50565b5f6116798383610e10565b6116f8575f8381526005602090815260408083206001600160a01b03861684529091529020805460ff191660011790556116b03390565b6001600160a01b0316826001600160a01b0316847f2f8788117e7eff1d82e926ec794901d17c78024a50270940304540a733656f0d60405160405180910390a4506001610832565b505f610832565b5f61170a8383610e10565b156116f8575f8381526005602090815260408083206001600160a01b0386168085529252808320805460ff1916905551339286917ff6391f5c32d9c69d2a47ea670b442974b53935d1edc7fd64eb21e047a839171b9190a4506001610832565b60026006540361178d57604051633ee5aeb560e01b815260040160405180910390fd5b6002600655565b6001600160a01b0382166117bd57604051634b637e8f60e11b81525f60048201526024016109ed565b6117c8825f836119cc565b5050565b5f826117d88584611af2565b14949350505050565b6001600160a01b03831661180a57604051634b637e8f60e11b81525f60048201526024016109ed565b6001600160a01b0382166118335760405163ec442f0560e01b81525f60048201526024016109ed565b610af78383836119cc565b5f3361097f8185856117e1565b6001600160a01b0384166118745760405163e602df0560e01b81525f60048201526024016109ed565b6001600160a01b03831661189d57604051634a1406b160e11b81525f60048201526024016109ed565b6001600160a01b038085165f9081526001602090815260408083209387168352929052208290558015610abe57826001600160a01b0316846001600160a01b03167f8c5be1e5ebec7d5bd14f71427d1e84f3dd0314c0f7b2291e5b200ac8c7c3b9258460405161190f91815260200190565b60405180910390a350505050565b6001600160a01b038381165f908152600160209081526040808320938616835292905220545f19811015610abe578181101561198557604051637dc7a0d960e11b81526001600160a01b038416600482015260248101829052604481018390526064016109ed565b610abe84848484035f61184b565b61199d8282610e10565b6117c85760405163e2517d3f60e01b81526001600160a01b0382166004820152602481018390526044016109ed565b6001600160a01b0383166119f6578060025f8282546119eb9190611e59565b90915550611a669050565b6001600160a01b0383165f9081526020819052604090205481811015611a485760405163391434e360e21b81526001600160a01b038516600482015260248101829052604481018390526064016109ed565b6001600160a01b0384165f9081526020819052604090209082900390555b6001600160a01b038216611a8257600280548290039055611aa0565b6001600160a01b0382165f9081526020819052604090208054820190555b816001600160a01b0316836001600160a01b03167fddf252ad1be2c89b69c2b068fc378daa952ba7f163c4a11628f55a4df523b3ef83604051611ae591815260200190565b60405180910390a3505050565b5f81815b8451811015611b3657611b2282868381518110611b1557611b15611ff6565b6020026020010151611b3e565b915080611b2e8161200a565b915050611af6565b509392505050565b5f818310611b58575f828152602084905260409020610874565b5f838152602083905260409020610874565b80356001600160a01b0381168114610d6b575f80fd5b5f60208284031215611b90575f80fd5b61087482611b6a565b5f60208284031215611ba9575f80fd5b81356001600160e01b031981168114610874575f80fd5b5f6020808352835180828501525f5b81811015611beb57858101830151858201604001528201611bcf565b505f604082860101526040601f19601f8301168501019250505092915050565b5f8060408385031215611c1c575f80fd5b611c2583611b6a565b946020939093013593505050565b5f805f60608486031215611c45575f80fd5b611c4e84611b6a565b9250611c5c60208501611b6a565b9150604084013590509250925092565b5f60208284031215611c7c575f80fd5b5035919050565b5f8060408385031215611c94575f80fd5b82359150611ca460208401611b6a565b90509250929050565b5f8060408385031215611cbe575f80fd5b611cc783611b6a565b915060208301358015158114611cdb575f80fd5b809150509250929050565b5f805f60408486031215611cf8575f80fd5b83359250602084013567ffffffffffffffff80821115611d16575f80fd5b818601915086601f830112611d29575f80fd5b813581811115611d37575f80fd5b8760208260051b8501011115611d4b575f80fd5b6020830194508093505050509250925092565b5f8060408385031215611d6f575f80fd5b611d7883611b6a565b9150611ca460208401611b6a565b634e487b7160e01b5f52604160045260245ffd5b5f60208284031215611daa575f80fd5b813567ffffffffffffffff80821115611dc1575f80fd5b818401915084601f830112611dd4575f80fd5b813581811115611de657611de6611d86565b604051601f8201601f19908116603f01168101908382118183101715611e0e57611e0e611d86565b81604052828152876020848701011115611e26575f80fd5b826020860160208301375f928101602001929092525095945050505050565b634e487b7160e01b5f52601160045260245ffd5b8082018082111561083257610832611e45565b600181811c90821680611e8057607f821691505b602082108103611e9e57634e487b7160e01b5f52602260045260245ffd5b50919050565b601f821115610af7575f81815260208120601f850160051c81016020861015611eca5750805b601f850160051c820191505b81811015611ee957828155600101611ed6565b505050505050565b815167ffffffffffffffff811115611f0b57611f0b611d86565b611f1f81611f198454611e6c565b84611ea4565b602080601f831160018114611f52575f8415611f3b5750858301515b5f19600386901b1c1916600185901b178555611ee9565b5f85815260208120601f198616915b82811015611f8057888601518255948401946001909101908401611f61565b5085821015611f9d57878501515f19600388901b60f8161c191681555b5050505050600190811b01905550565b8181038181111561083257610832611e45565b808202811582820484141761083257610832611e45565b5f82611ff157634e487b7160e01b5f52601260045260245ffd5b500490565b634e487b7160e01b5f52603260045260245ffd5b5f6001820161201b5761201b611e45565b506001019056fea26469706673582212202aacd7fb4aef57b2d04fc9843258f695fd9d12581a5d88aac9871de72914e2b864736f6c63430008140033a49807205ce4d355092ef5a8a18f56e8913cf4a201fbe287825b095693c21775",
    "linkReferences": {}
  },
  "methodIdentifiers": {
    "ADMIN_ROLE()": "75b238fc",
    "BLACKLISTER_ROLE()": "f515e6f2",
    "DEFAULT_ADMIN_ROLE()": "a217fddf",
    "allowance(address,address)": "dd62ed3e",
    "approve(address,uint256)": "095ea7b3",
    "balanceOf(address)": "70a08231",
    "blacklisted(address)": "dbac26e9",
    "burn(uint256)": "42966c68",
    "claimTokens(uint256,bytes32[])": "9a114cb2",
    "decimals()": "313ce567",
    "excludedFromVesting(address)": "4abc4a3c",
    "getClaimStatus(address)": "c9760f71",
    "getRoleAdmin(bytes32)": "248a9ca3",
    "getTransferableAmount(address)": "00b61dd9",
    "getVestingInfo(address)": "fb897ce4",
    "grantRole(bytes32,address)": "2f2ff15d",
    "hasClaimed(address)": "73b2e80e",
    "hasRole(bytes32,address)": "91d14854",
    "isBlacklisted(address)": "fe575a87",
    "isExcludedFromVesting(address)": "3da2903c",
    "merkleRoot()": "2eb4a7ab",
    "name()": "06fdde03",
    "renounceRole(bytes32,address)": "36568abe",
    "revokeRole(bytes32,address)": "d547741f",
    "setBlacklisted(address,bool)": "d01dd6d2",
    "setExcludedFromVesting(address,bool)": "934cefef",
    "setMerkleRoot(bytes32)": "7cb64759",
    "setTokenURI(string)": "e0df5b6f",
    "supportsInterface(bytes4)": "01ffc9a7",
    "symbol()": "95d89b41",
    "tokenURI()": "3c130d90",
    "totalSupply()": "18160ddd",
    "transfer(address,uint256)": "a9059cbb",
    "transferFrom(address,address,uint256)": "23b872dd",
    "transferredTokens(address)": "751c7ff1",
    "vestingSchedules(address)": "fdb20ccb"
  },
  "id": 28
}